S00A00004C462E7372656388
S11300000C942A000C9447000C9447000C9447006D
S11300100C9447000C9447000C9447000C94470040
S11300200C9447000C9447000C9447000C94470030
S11300300C9447000C9447000C9447000C94470020
S11300400C9447000C9447000C9447000C94470010
S11300500C94470011241FBECFE5D4E0DEBFCDBF12
S113006010E0A0E6B0E0EAE7F6E002C005900D92E9
S1130070AC36B107D9F720E0ACE6B0E001C01D9280
S1130080A437B207E1F70E94B6010C943B030C9429
S1130090000010BC87E689B988E08AB986E880BD8B
S11300A008955D9BFECF8CB908950F931F93CF9352
S11300B0DF9383E50E9451008AE30E94510080E2AD
S11300C00E945100CFE6D0E004E710E0899181114D
S11300D002C080E301C081E30E94510080E20E94DB
S11300E05100C017D10791F78DE00E9451008AE0BA
S11300F00E945100DF91CF911F910F91089580E4E8
S113010087B987E886B9089597B1987F8770892B56
S113011087B9369A3699FECF84B195B1089584B3E0
S11301208F6184BB81B3806381BB8E98969A81EA88
S11301308FBD8BE08EBD08958F3F910519F014F0AB
S11301408FEF90E081302FEF920714F481E09FEF5E
S1130150262F372F2F3F310519F014F02FEF30E001
S113016021304FEF340714F421E03FEF99231CF0C2
S1130170A898A99A02C0A89AA998AC01992324F432
S113018044275527481B590B5BBD4ABD33231CF03C
S1130190AA9AAB9802C0AA98AB9AC901992324F4ED
S11301A088279927821B930B99BD88BD0895EF92E8
S11301B0FF920F931F93CF93DF9310926E000F2E35
S11301C0F2E6EF2EF0E0FF2EF02D0FE610E0C0E097
S11301D0D1E08C2F0E948400F701219131917F019D
S11301E08217930718F4F801108202C0F801D08333
S11301F0F80181918F0190916E00890F80936E00B8
S1130200CF5FC53031F7DF91CF911F910F91FF90F0
S1130210EF900895CF93DF9380917100813091F432
S11302208091700081110EC08091720081112FC0E5
S11302308091600090916100BC010E949C0010922A
S11302406D0091C080917000813009F580916F003C
S113025081111DC06091600070916100EB01649692
S1130260072E000C880B990B0E94420220E030E01C
S113027040E05FE30E94A6020E940A02DC01CB0177
S1130280BE010E949C008FEF80936D006CC0809132
S11302906F00813071F46091600070916100625E62
S11302A07F4F8EEC9FEF0E949C008EEF80936D0039
S11302B05AC0809172008130F9F4809173008111E9
S11302C01BC0C0916000D0916100BE010D2E000CD6
S11302D0880B990B0E94420220E030E040E05FE38B
S11302E00E94A6020E940A02CE0144960E949C002B
S11302F081E080936D0037C080917300813069F490
S113030080916000909161006EEC7FEF4E960E94A8
S11303109C0082E080936D0026C080916E00811164
S113032022C080916D0092E0980F923048F4609161
S113033060007091610084EC9FEF0E949C0013C0E8
S11303408150823048F464EC7FEF8091600090919A
S113035061000E949C0007C0809160009091610040
S1130360BC010E949C00DF91CF91089584B78068FE
S113037084BF84B7806884BF0E947F000E948F007E
S11303800E94490086E020E195B3922795BB3FEF98
S113039042E597E0315040409040E1F700C0000052
S11303A0815091F7AC98C0E0D1E010E0869914C078
S11303B02FEF30E742E0215030404040E1F700C0E9
S11303C00000869909C08D2F90916C009111812FA6
S11303D080936C00869BFECF0E94D700CF5FCA300B
S11303E018F00E945500C0E080916C00813021F427
S11303F0AC9A0E940A0107C060E070E080E090E0DF
S11304000E949C00AC988FE19EE40197F1F700C034
S11304100000CCCF0E9411026894B1110C94A00288
S113042008950E94850288F09F5798F0B92F992764
S1130430B751B0F0E1F0660F771F881F991F1AF0CB
S1130440BA95C9F714C0B13091F00E949F02B1E08F
S113045008950C949F02672F782F8827B85F39F08E
S1130460B93FCCF3869577956795B395D9F73EF464
S113047090958095709561957F4F8F4F9F4F08950C
S1130480E89409C097FB3EF490958095709561952A
S11304907F4F8F4F9F4F9923A9F0F92F96E9BB27E0
S11304A09395F695879577956795B795F111F8CF5C
S11304B0FAF4BB0F11F460FF1BC06F5F7F4F8F4FC7
S11304C09F4F16C0882311F096E911C0772321F0BD
S11304D09EE8872F762F05C0662371F096E8862F55
S11304E070E060E02AF09A95660F771F881FDAF7AC
S11304F0880F9695879597F9089557FD9058440F5E
S1130500551F59F05F3F71F04795880F97FB991F6E
S113051061F09F3F79F0879508951216130614062B
S1130520551FF2CF4695F1DF08C0161617061806B8
S1130530991FF1CF86957105610508940895E89493
S1130540BB2766277727CB0197F908950E94B90244
S11305500C942A030E941C0338F00E94230320F009
S1130560952311F00C9413030C94190311240C9487
S1130570A0020E947D0270F3959FC1F3950F50E095
S1130580551F629FF001729FBB27F00DB11D639F41
S1130590AA27F00DB11DAA1F649F6627B00DA11DE7
S11305A0661F829F2227B00DA11D621F739FB00D8D
S11305B0A11D621F839FA00D611D221F749F3327FD
S11305C0A00D611D231F849F600D211D822F762F96
S11305D06A2F11249F5750409AF0F1F088234AF073
S11305E0EE0FFF1FBB1F661F771F881F91505040DF
S11305F0A9F79E3F510580F00C9413030C94A002BC
S11306005F3FE4F3983ED4F3869577956795B79565
S1130610F795E7959F5FC1F7FE2B880F911D96957F
S1130620879597F9089597F99F6780E870E060E0EF
S113063008959FEF80EC089500240A941616170677
S113064018060906089500240A94121613061406BF
S113065005060895092E0394000C11F4882352F022
S1130660BB0F40F4BF2B11F460FF04C06F5F7F4FDA
S10D06708F4F9F4F0895F894FFCFB9
S10F067A820036010E0118013601F00068
S9030000FC
