S01200004C4641544D45474131362E737265636A
S11300000C942A000C9447000C9447000C9447006D
S11300100C9447000C9447000C9447000C94470040
S11300200C9447000C9447000C9447000C94470030
S11300300C9447000C9447000C9447000C94470020
S11300400C9447000C9447000C9447000C94470010
S11300500C94470011241FBECFE5D4E0DEBFCDBF12
S113006010E0A0E6B0E0E8EBFAE002C005900D92E3
S1130070AA37B107D9F720E0AAE7B0E001C01D9282
S1130080A73AB207E1F70E94C8020C945A050C94EF
S1130090000010BC87E689B988E08AB986E880BD8B
S11300A008955D9BFECF8CB908950F931F93CF9352
S11300B0DF9383E50E9451008AE30E94510080E2AD
S11300C00E945100C2EAD0E007EA10E08991811150
S11300D002C080E301C081E30E94510080E20E94DB
S11300E05100C017D10791F78DE00E9451008AE0BA
S11300F00E945100DF91CF911F910F91089580E4E8
S113010087B987E886B9089597B1987F8770892B56
S113011087B9369A3699FECF84B195B1089584B3E0
S11301208F6184BB81B3806381BB8E98969A81EA88
S11301308FBD8BE08EBD08958F3F910519F014F0AB
S11301408FEF90E081302FEF920714F481E09FEF5E
S1130150262F372F2F3F310519F014F02FEF30E001
S113016021304FEF340714F421E03FEF99231CF0C2
S1130170A898A99A02C0A89AA998AC01992324F432
S113018044275527481B590B5BBD4ABD33231CF03C
S1130190AA9AAB9802C0AA98AB9AC901992324F4ED
S11301A088279927821B930B99BD88BD0895CF9208
S11301B0DF92EF92FF920F931F93CF93DF931092EE
S11301C0A1001092A00010929F000F2EFFE6EF2EC8
S11301D0F0E0FF2EF02D02EA10E0C0E0DD24D3941D
S11301E08C2F0E948400F701219131917F018217A5
S11301F0930718F4F801108202C0F801D082F801C4
S113020061918F018091A100D62FD80FD093A100C6
S1130210CF5FC53029F7DD2309F460C0A2EAB0E05E
S11302202C91EAE6F0E060816203B001112411969A
S11302302C91119731813203C0011124680F791F69
S113024012962C91129732813203C0011124680F47
S1130250791F13962C91139733813203C001112413
S1130260680F791F14962C9134813203C001112434
S1130270680F791F7093A00060939F00072E000CF5
S1130280880B990B0E9438046B017C016D2F70E080
S113029080E090E00E9438049B01AC01C701B601E4
S11302A00E948E039B01AC0160939B0070939C00A1
S11302B080939D0090939E006091970070919800A8
S11302C08091990090919A000E941C03609393007E
S11302D0709394008093950090939600DF91CF9152
S11302E01F910F91FF90EF90DF90CF9008954F9260
S11302F05F926F927F928F929F92AF92BF92CF92B2
S1130300DF92EF92FF92CF93DF938091A100882335
S113031009F4DAC0C0909300D0909400E090950066
S1130320F0909600C0928B00D0928C00E0928D00E9
S1130330F0928E0020918F003091900040919100B6
S113034050919200C701B6010E941C032B013C018D
S113035060938700709388008093890090938A004B
S11303602091830030918400409185005091860053
S1130370C701B6010E941D034B015C016093830019
S113038070938400809385009093860020E030E091
S113039048EC52E40E94E80418166CF480E090E003
S11303A0A8ECB2E48093830090938400A09385002A
S11303B0B093860016C020E030E048EC52ECC50152
S11303C0B4010E948903882364F480E090E0A8ECDF
S11303D0B2EC8093830090938400A0938500B09343
S11303E08600209164003091650040916600509130
S11303F06700C701B6010E94ED044B015C01209126
S11304006000309161004091620050916300C3012B
S1130410B2010E94ED049B01AC01C501B4010E942C
S11304201D034B015C0120918300309184004091B5
S113043085005091860060917B0070917C008091D2
S11304407D0090917E000E94ED049B01AC01C501EA
S1130450B4010E941D034B015C0160937F00709303
S113046080008093810090938200C0916800D091B5
S11304706900C701B6010E9400049B01772324F49C
S113048022273327261B370B2F3031053CF0CE01B2
S1130490DD230CF40196EC01D595C795C501B40193
S11304A00E940004C0928F00D0929000E0929100CC
S11304B0F09292009E01260F371FCE01861B970BE8
S11304C0B9010E949C0055C0C0908B00D0908C0054
S11304D0E0908D00F0908E0020E030E040E251EC9E
S11304E0C701B6010E9489038823C4F4C09168003F
S11304F0D0916900BE010D2E000C880B990B0E944F
S113050038042AE939E949E95EE30E94ED04905888
S11305100E940004CE010E949C002BC020E030E029
S113052040E251E4C701B6010E94E8041816D4F46D
S1130530C0916800D0916900BE010D2E000C880B9B
S1130540990B0E9438042AE939E949E95EE30E94DB
S1130550ED0490580E940004DC01CB01BE010E940E
S11305609C0007C08091680090916900BC010E94C2
S11305709C00DF91CF91FF90EF90DF90CF90BF90E0
S1130580AF909F908F907F906F905F904F90089561
S113059084B7806884BF84B7806884BF0E947F006A
S11305A00E948F000E94490086E020E195B39227C3
S11305B095BB3FEF42E597E0315040409040E1F772
S11305C000C00000815091F7AC98C0E0D1E010E089
S11305D0869914C02FEF30E742E02150304040406C
S11305E0E1F700C00000869909C08D2F90917A0030
S11305F09111812F80937A00869BFECF0E94D700B1
S1130600CF5FCA3018F00E945500C0E080917A0094
S1130610813021F4AC9A0E94770107C060E070E059
S113062080E090E00E949C00AC988FE19EE40197EA
S1130630F1F700C00000CCCF5058BB27AA270E9476
S113064034030C94AE040E94A00438F00E94A70462
S113065020F039F49F3F19F426F40C949D040EF411
S1130660E095E7FB0C949704E92F0E94BF0458F32C
S1130670BA17620773078407950720F079F4A6F583
S11306800C94E1040EF4E0950B2EBA2FA02D0B016F
S1130690B90190010C01CA01A0011124FF27591BC3
S11306A099F0593F50F4503E68F11A16F040A22FC9
S11306B0232F342F4427585FF3CF4695379527953A
S11306C0A795F0405395C9F77EF41F16BA0B620B39
S11306D0730B840BBAF09150A1F0FF0FBB1F661F80
S11306E0771F881FC2F70EC0BA0F621F731F841FC3
S11306F048F4879577956795B795F7959E3F08F0E9
S1130700B0CF9395880F08F09927EE0F97958795AA
S113071008950E94730408F481E008950E94A203DE
S11307200C94AE040E94A70458F00E94A00440F068
S113073029F45F3F29F00C94970451110C94E204BE
S11307400C949D040E94BF0468F39923B1F35523CC
S113075091F3951B550BBB27AA27621773078407D0
S113076038F09F5F5F4F220F331F441FAA1FA9F366
S113077035D00E2E3AF0E0E832D091505040E69554
S1130780001CCAF72BD0FE2F29D0660F771F881FB5
S1130790BB1F261737074807AB07B0E809F0BB0BA8
S11307A0802DBF01FF2793585F4F3AF09E3F5105BC
S11307B078F00C9497040C94E2045F3FE4F3983EC1
S11307C0D4F3869577956795B795F7959F5FC9F7A5
S11307D0880F911D9695879597F90895E1E0660F26
S11307E0771F881FBB1F621773078407BA0720F09F
S11307F0621B730B840BBA0BEE1F88F7E095089508
S11308000E9407046894B1110C94E20408950E94B4
S1130810C70488F09F5798F0B92F9927B751B0F0C3
S1130820E1F0660F771F881F991F1AF0BA95C9F770
S113083014C0B13091F00E94E104B1E008950C9429
S1130840E104672F782F8827B85F39F0B93FCCF3DC
S1130850869577956795B395D9F73EF490958095ED
S1130860709561957F4F8F4F9F4F0895E89409C00D
S113087097FB3EF490958095709561957F4F8F4FCF
S11308809F4F9923A9F0F92F96E9BB279395F695E5
S1130890879577956795B795F111F8CFFAF4BB0F63
S11308A011F460FF1BC06F5F7F4F8F4F9F4F16C0C7
S11308B0882311F096E911C0772321F09EE8872F51
S11308C0762F05C0662371F096E8862F70E060E00D
S11308D02AF09A95660F771F881FDAF7880F969586
S11308E0879597F90895990F0008550FAA0BE0E82A
S11308F0FEEF16161706E807F907C0F012161306DE
S1130900E407F50798F0621B730B840B950B39F41D
S11309100A2661F0232B242B252B21F408950A2683
S113092009F4A140A6958FEF811D811D089597F9C3
S11309309F6780E870E060E008959FEF80EC089581
S113094000240A94161617061806090608950024AA
S11309500A9412161306140605060895092E039424
S1130960000C11F4882352F0BB0F40F4BF2B11F498
S113097060FF04C06F5F7F4F8F4F9F4F089557FDF7
S11309809058440F551F59F05F3F71F04795880FF9
S113099097FB991F61F09F3F79F087950895121690
S11309A013061406551FF2CF4695F1DF08C016163C
S11309B017061806991FF1CF8695710561050894ED
S11309C00895E894BB2766277727CB0197F9089504
S11309D00E94730408F48FEF08950E9400050C949C
S11309E0AE040E94A00438F00E94A70420F09523CE
S11309F011F00C9497040C949D0411240C94E204BB
S1130A000E94BF0470F3959FC1F3950F50E0551FEA
S1130A10629FF001729FBB27F00DB11D639FAA274F
S1130A20F00DB11DAA1F649F6627B00DA11D661F9E
S1130A30829F2227B00DA11D621F739FB00DA11DBF
S1130A40621F839FA00D611D221F749F3327A00D79
S1130A50611D231F849F600D211D822F762F6A2F15
S1130A6011249F5750409AF0F1F088234AF0EE0F7A
S1130A70FF1FBB1F661F771F881F91505040A9F7A7
S1130A809E3F510580F00C9497040C94E2045F3F60
S1130A90E4F3983ED4F3869577956795B795F795E3
S1130AA0E7959F5FC1F7FE2B880F911D969587955B
S10B0AB097F90895F894FFCFB3
S1130AB800008C42000000418200E2F6000A1E3663
S10D0AC8010E0118013601F00000D0
S9030000FC
